:0C0000000C9442000C9483000C9400004F
:10000C000C9400000C9400000C9400000C94000064
:10001C000C9400000C9400000C9400000C94000054
:10002C000C9400000C9400000C94A4000C940000A0
:10003C000C9400000C9400000C9400000C94000034
:10004C000C9400000C9400000C9400000C94000024
:10005C000C9400000C9400000C9400001027E80392
:10006C0064000A00010000100001100001000203EE
:10007C00020004037A000000F894EE27EFBBF1E0D5
:10008C00F5BFE5BFF8E1A895A4B7A77FA4BFF0938F
:10009C006000E09360008DE0A2E0BB27ED938A95B1
:1000AC00E9F780E098E0A0E0B1E0ED930197E9F783
:1000BC00ECE7F0E085919591009761F0A591B591F1
:1000CC0005901590BF01F00105900D920197E1F795
:1000DC00FB01F0CFE0E0EEBBEFEFEDBFE8E0EEBFF1
:1000EC00C0E0D3E00C94C300E091C000E072E1F3F7
:1000FC00E881E093C60021960895AA93BA93EA93F7
:10010C00EFB7EA93F09913C0E0918400A091040337
:10011C00B0910503EC93E0918500A0910403B0919C
:10012C0005031196EC9390900203A0900303F09AB0
:10013C00E991EFBFE991B991A9911895EA93FA93D6
:10014C00EFEFFFEF9E2EAF2EF09AF991E9911895F3
:10015C000E949201F098E2E0E09381000E949201EB
:10016C00E8E0EAB95B9AF09BFECFE0E0E093810017
:10017C00529A5B98E92DFA2D0895E0E8E09361001E
:10018C00E0E0E0936100E5B9E4B9E8B9E7B9EBB9AF
:10019C00E8E0EAB9E0E0E4BDE1E0E5BDE0E0E6BDC1
:1001AC00E7BDE8BDE0938000E09381000E949201DE
:1001BC00E0E0E0938700E0938600E0938900E09311
:1001CC008800E0938B00E0938A00E093B600E09304
:1001DC00B000E093B100E093B200E093B300E09381
:1001EC00B400E3E0E0936900E1E0EDBBECBBE0E0E0
:1001FC00E0936800E0936E00E1E0E0936F00E0E0D4
:10020C00E0937000E093C000E8E0E093C100E6E00A
:10021C00E093C200E0E0E093C500E7E6E093C400A1
:10022C00E0E8E0BFE0E0E0937B00E0937F00E09348
:10023C007A00ECBDE093BC007894EEE5F1E0DE2EA4
:10024C00EF2E0E94980184DFBE2ECF2EEB2DFC2DBD
:10025C00A5E1B0E00E94AB01DF01E4E1F0E00E9417
:10026C00B301BE2ECF2EE8ECF0E0FA93EA930E9495
:10027C009F01259A6DDFE0930203F0930303E2E301
:10028C00F0E0FA93EA930E949F01E0910403F0914D
:10029C000503E181EA9328DFA0910403B0910503E3
:1002AC00EC91EA9321DFA0910203B0910303BA16FB
:1002BC00CB0650F4772029F42D9B02C02D9801C059
:1002CC002D9AE4E17E2E03C0772009F07A94E1E0C8
:1002DC00F0E0DE0EEF1EE0910203F0910303A0911B
:1002EC000003B0910103EA17FB0720F4E09300032D
:1002FC00F0930103E0E9F1E0ED15FE0558F4E0910F
:10030C000003F09101037996BE2ECF2E0E94980126
:10031C00DD24EE24AFCFFFCFE0E0E0938500E09347
:10032C0084000895EFEFFFEFE0930003F0930103D7
:10033C000895E991F991309639F080EA9FE00197A0
:10034C00F1F7A8953197C9F70895FA9FF02DEB9F17
:10035C00F00DEA9FE02DF10D08950024112490E199
:10036C00AA0FBB1F001C111C0E1A1F0A18F40E0E2C
:10037C001F1E01C0A1609A9599F7FD01D001089547
:00000001FF
